:020000040000FA
:100000000C945E000C9486000C9486000C94860080
:100010000C9486000C9486000C9486000C94860048
:100020000C9486000C9486000C9486000C94860038
:100030000C9486000C9486000C9486000C94860028
:100040000C94C4020C9486000C9492020C946C02E2
:100050000C9486000C9486000C9486000C94860008
:100060000C9486000C948600000000080002010039
:100070000003040700000000000000000000000072
:10008000250028002B0000000000240027002A0083
:10009000040404040404040402020202020203032E
:1000A0000303030301020408102040800102040836
:1000B00010200102040810200E03510511241FBE58
:1000C000CFEFD8E0DEBFCDBF21E0AAE3B1E001C0B1
:1000D0001D92AA3EB207E1F711E0A0E0B1E0EEE325
:1000E000FFE002C005900D92AA33B107D9F710E0E6
:1000F000CDE5D0E004C02197FE010E949105CC35EA
:10010000D107C9F70E9482030C9492070C94000057
:1001100090E0FC01EC55FF4F249180579F4FFC016C
:100120008491882399F090E0880F991FFC01EA5789
:10013000FF4FA591B491FC01E458FF4F8591949134
:100140008FB7F894EC91E22BEC938FBF0895AF92A8
:10015000BF92CF92DF92EF92FF920F931F93CF93B4
:10016000DF936C017B018B01040F151FEB015E0116
:10017000AE18BF08C017D10759F06991D601ED91AB
:10018000FC910190F081E02DC6010995892B79F74A
:10019000C501DF91CF911F910F91FF90EF90DF90FC
:1001A000CF90BF90AF900895FC01538D448D252FC3
:1001B00030E0842F90E0821B930B541710F0CF9601
:1001C000089501970895FC01918D828D981761F033
:1001D000A28DAE0FBF2FB11D5D968C91928D9F5F4A
:1001E0009F73928F90E008958FEF9FEF0895FC0129
:1001F000918D828D981731F0828DE80FF11D858DDC
:1002000090E008958FEF9FEF0895FC01918D228D6E
:10021000892F90E0805C9F4F821B91098F739927F3
:10022000089583E491E00E94050121E0892B09F4FF
:1002300020E0822F089580E090E0892B29F00E9431
:10024000110181110C9400000895FC01A48DA80FE8
:10025000B92FB11DA35ABF4F2C91848D90E0019608
:100260008F739927848FA689B7892C93A089B18928
:100270008C91837080648C93938D848D981306C0C9
:100280000288F389E02D80818F7D80830895EF922D
:10029000FF920F931F93CF93DF93EC0181E0888F40
:1002A0009B8D8C8D98131AC0E889F989808185FF10
:1002B00015C09FB7F894EE89FF896083E889F989B2
:1002C00080818370806480839FBF81E090E0DF91B4
:1002D000CF911F910F91FF90EF900895F62E0B8D07
:1002E00010E00F5F1F4F0F731127E02E8C8D8E11C2
:1002F0000CC00FB607FCFACFE889F989808185FF29
:10030000F5CFCE010E942501F1CFEB8DEC0FFD2F33
:10031000F11DE35AFF4FF0829FB7F8940B8FEA89E3
:10032000FB8980818062CFCFCF93DF93EC01888DF2
:100330008823B9F0AA89BB89E889F9898C9185FD60
:1003400003C0808186FD0DC00FB607FCF7CF8C91EE
:1003500085FFF2CF808185FFEDCFCE010E94250180
:10036000E9CFDF91CF91089590E0FC01E859FF4F6C
:100370002491FC01EC55FF4F3491FC01E057FF4FF5
:10038000E491EE23C9F0222339F0233001F1A8F4DF
:10039000213019F1223029F1F0E0EE0FFF1FE4586F
:1003A000FF4FA591B4918FB7F894EC91611126C0DD
:1003B00030953E233C938FBF08952730A9F0283015
:1003C000C9F0243049F7809180008F7D03C080916F
:1003D00080008F7780938000DFCF84B58F7784BDD6
:1003E000DBCF84B58F7DFBCF8091B0008F7780937A
:1003F000B000D2CF8091B0008F7DF9CF3E2BDACF05
:100400003FB7F89480913F0190914001A091410144
:10041000B091420126B5A89B05C02F3F19F0019667
:10042000A11DB11D3FBFBA2FA92F982F8827BC014E
:10043000CD01620F711D811D911D42E0660F771F76
:10044000881F991F4A95D1F708952091E4013091B2
:10045000E501232B39F421E0FC018081882361F040
:1004600020E00AC0BC018091E0019091E1010E946E
:10047000820721E0892BA1F7822F0895CF93DF9384
:10048000EC018091E0019091E101009759F02091F9
:10049000E2013091E3012C173D0720F081E0DF916C
:1004A000CF910895BE016F5F7F4F0E94BC060097F9
:1004B00089F09093E1018093E001D093E301C09330
:1004C000E2012091E4013091E501232B39F7FC0191
:1004D0001082E4CF80E0E3CF1F920F920FB60F920D
:1004E00011242F933F934F935F936F937F938F9339
:1004F0009F93AF93BF93EF93FF9383E491E00E94A8
:100500002501FF91EF91BF91AF919F918F917F91C5
:100510006F915F914F913F912F910F900FBE0F9070
:100520001F9018951F920F920FB60F9211242F93C0
:100530008F939F93EF93FF93E0915301F0915401B8
:100540008081E0915901F0915A0182FD1BC0908198
:1005500080915C018F5F8F7320915D01821741F064
:10056000E0915C01F0E0ED5BFE4F958F80935C01C4
:10057000FF91EF919F918F912F910F900FBE0F9050
:100580001F9018958081F4CF1F920F920FB60F9293
:1005900011242F933F938F939F93AF93BF93809199
:1005A0003B0190913C01A0913D01B0913E01309101
:1005B0003A0123E0230F2D3758F50196A11DB11DF7
:1005C00020933A0180933B0190933C01A0933D011D
:1005D000B0933E0180913F0190914001A091410173
:1005E000B09142010196A11DB11D80933F019093EE
:1005F0004001A0934101B0934201BF91AF919F91FF
:100600008F913F912F910F900FBE0F901F901895D3
:1006100026E8230F0296A11DB11DD2CF10924601EC
:100620001092450188EE93E0A0E0B0E0809347018E
:1006300090934801A0934901B0934A018AE091E068
:10064000909344018093430185EC90E09093500196
:1006500080934F0184EC90E090935201809351017C
:1006600080EC90E0909354018093530181EC90E0F2
:10067000909356018093550182EC90E0909358013D
:100680008093570186EC90E090935A018093590132
:1006900010925C0110925D0110925E0110925F0158
:1006A0001092E1011092E0011092E3011092E20138
:1006B0001092E5011092E40190E080E00E943E0279
:1006C0002091E0013091E101811113C02115310524
:1006D00019F0C9010E9433061092E1011092E00165
:1006E0001092E5011092E4011092E3011092E201F0
:1006F00008951092E5011092E4016AE171E0C901E8
:100700000C948B07CF93DF9300D0CDB7DEB77894EE
:1007100084B5826084BD84B5816084BD85B5826006
:1007200085BD85B5816085BD80916E0081608093B7
:100730006E00109281008091810082608093810020
:100740008091810081608093810080918000816030
:10075000809380008091B10084608093B10080918B
:10076000B00081608093B00080917A0084608093B3
:100770007A0080917A00826080937A0080917A007A
:10078000816080937A0080917A00806880937A00FB
:100790001092C100E0915301F091540182E08083F6
:1007A000E0914F01F09150011082E0915101F091E0
:1007B00052018FEC808310925B01E0915701F09120
:1007C000580186E08083E0915501F09156018081C7
:1007D00080618083E0915501F091560180818860AD
:1007E0008083E0915501F09156018081806880837B
:1007F000E0915501F091560180818F7D808382E0E8
:100800000E94880083E00E94880084E00E948800A3
:1008100085E00E94880086E00E94880087E00E94B0
:10082000880088E00E94880089E00E94880060E0DB
:1008300082E00E94B40160E083E00E94B40160E0C5
:1008400084E00E94B40160E085E00E94B40160E0B1
:1008500086E00E94B40160E087E00E94B40160E09D
:1008600088E00E94B40160E089E00E94B40190E059
:10087000E92E90E0F92E83E491E00E940501892B96
:1008800009F44BC00E9400024B015C018AE0482E33
:10089000512C612C712C0E940002681979098A0977
:1008A0009B09683E734081059105A8F321E0421A37
:1008B00051086108710888EE880E83E0981EA11C1B
:1008C000B11C411451046104710429F783E491E0DF
:1008D0000E94E300833209F189831A820091E401C6
:1008E0001091E5010F5F1F4FC8010E943E0288234F
:1008F00011F22091E0013091E1018091E4019091A9
:10090000E501BE016F5F7F4F820F931F0E948B072F
:100910001093E5010093E401AECF4091E4015091C2
:10092000E50141155105E9F16091E0017091E101A6
:1009300083E491E00E94A70042E050E068E171E0AA
:1009400083E491E00E94A7008BE191E00E942502E0
:1009500060E0811107C08DE191E00E9425028823AB
:1009600061F161E082E00E94B40190E080E00E94C9
:100970003E022091E0013091E101811188C02115F2
:10098000310519F0C9010E9433061092E10110925D
:10099000E0011092E5011092E4011092E30110923F
:1009A000E201E114F10409F466CF0E9411018823E9
:1009B00009F461CF0E9400005ECF8FE191E00E94B8
:1009C0002502882319F060E083E0CDCF81E291E039
:1009D0000E94250260E0811107C083E291E00E943D
:1009E0002502882319F061E084E0BDCF85E291E023
:1009F0000E94250260E0811107C087E291E00E9419
:100A00002502882319F061E085E0ADCF89E291E00D
:100A10000E94250260E0811107C08BE291E00E94F4
:100A20002502882319F061E086E09DCF8DE291E0F8
:100A30000E94250260E0811107C08FE291E00E94D0
:100A40002502882319F061E087E08DCF81E391E0F2
:100A50000E94250260E0811107C083E391E00E94BB
:100A60002502882319F061E088E07DCF85E391E0DD
:100A70000E94250260E0811108C087E391E00E9496
:100A80002502882309F471CF61E089E06CCF1092D0
:100A9000E5011092E4016AE171E0C9010E948B074F
:100AA00080CF8091E0019091E101009711F00C94CA
:100AB000330608952F923F924F925F926F927F92EA
:100AC0008F929F92AF92BF92CF92DF92EF92FF925E
:100AD0000F931F93CF93DF93CDB7DEB7CA1BDB0B0A
:100AE0000FB6F894DEBF0FBECDBF09942A883988AF
:100AF00048885F846E847D848C849B84AA84B984B6
:100B0000C884DF80EE80FD800C811B81AA81B981C1
:100B1000CE0FD11D0FB6F894DEBF0FBECDBFED01D5
:100B20000895EE0FFF1F0590F491E02D09940F93A7
:100B30001F93CF93DF938230910510F482E090E011
:100B4000E091E801F091E90130E020E0B0E0A0E0C0
:100B5000309799F42115310509F44AC0281B390B47
:100B600024303105D8F58A819B816115710589F1A1
:100B7000FB0193838283FE0111C040815181028178
:100B8000138148175907E0F04817590799F410974F
:100B900061F012960C93129713961C933296CF0124
:100BA000DF91CF911F910F9108950093E801109369
:100BB000E901F4CF2115310551F04217530738F000
:100BC000A901DB019A01BD01DF01F801C1CFEF01ED
:100BD000F9CF9093E9018093E801CDCFFE01E20FB8
:100BE000F31F819391932250310939832883D7CF02
:100BF0002091E6013091E701232B41F4209102017D
:100C0000309103013093E7012093E6012091000128
:100C1000309101012115310541F42DB73EB74091C6
:100C2000040150910501241B350BE091E601F09180
:100C3000E701E217F307A0F42E1B3F0B2817390733
:100C400078F0AC014E5F5F4F2417350748F04E0F28
:100C50005F1F5093E7014093E601819391939FCFEB
:100C6000F0E0E0E09CCFCF93DF930097E9F0FC0148
:100C7000329713821282A091E801B091E901ED014F
:100C800030E020E01097A1F420813181820F931F82
:100C90002091E6013091E7012817390709F061C07A
:100CA000F093E701E093E601DF91CF910895EA0127
:100CB000CE17DF07E8F54A815B819E01411551059A
:100CC000B1F7E901FB83EA8349915991C40FD51F1C
:100CD000EC17FD0761F4808191810296840F951FC6
:100CE000E90199838883828193819B838A83F0E0E1
:100CF000E0E012968D919C9113970097B9F52D9194
:100D00003C911197CD010296820F931F2091E6012D
:100D10003091E7012817390739F6309751F51092CD
:100D2000E9011092E801B093E701A093E601BCCF7E
:100D3000D383C28340815181840F951FC817D9077F
:100D400061F44E5F5F4F88819981480F591F51832D
:100D500040838A819B81938382832115310509F029
:100D6000B0CFF093E901E093E8019ECFFD01DC01F3
:100D7000C0CF13821282D7CFB0E0A0E0E2ECF6E061
:100D80000C945C058C01009751F4CB010E949705EF
:100D90008C01C801CDB7DEB7E0E10C947805FC0109
:100DA000E60FF71F9C0122503109E217F30708F400
:100DB0009DC0D901CD91DC911197C617D70798F046
:100DC000C530D10530F3CE0104978617970708F395
:100DD000C61BD70B2297C193D1936D937C93CF0100
:100DE0000E943306D6CF5B01AC1ABD0A4C018C0EB3
:100DF0009D1EA091E801B091E901512C412CF12CEC
:100E0000E12C109731F58091E6019091E70188156A
:100E1000990509F05CC04616570608F058C0809145
:100E2000000190910101009741F48DB79EB7409168
:100E3000040150910501841B950BE817F90708F090
:100E400055C0F093E701E093E601F90171836083F7
:100E5000A0CF8D919C91119712966C90129713963A
:100E60007C901397A815B90559F56C0142E0C40EA2
:100E7000D11CCA14DB0420F1AC014A195B09DA0168
:100E80001296159780F06282738251834083D90154
:100E90006D937C93E114F10471F0D7011396FC93E8
:100EA000EE93129776CF22968C0F9D1FF9019183B6
:100EB0008083F301EFCFF093E901E093E80169CF7C
:100EC0004816590608F42C017D01D3019ACFCB01B5
:100ED0000E9497057C01009749F0AE01B8010E947D
:100EE0007907C8010E943306870153CF10E000E064
:100EF00050CFFB01DC0102C001900D9241505040E7
:100F0000D8F70895FB01DC018D9101908019011043
:100F1000D9F3990B0895FB01DC0101900D9200209B
:100F2000E1F7089510E0CDE5D0E004C0FE010E9495
:100F300091052196CE35D107C9F7F894FFCF00006F
:100F4000EA018000000000004701A700D4009401DE
:100F50000501E300F7000D0A006100410062006333
:100F600000430064004400650045006600460067D9
:080F7000004700680048000082
:107E0000112484B714BE81FFF0D085E080938100F7
:107E100082E08093C00088E18093C10086E0809377
:107E2000C20080E18093C4008EE0C9D0259A86E02C
:107E300020E33CEF91E0309385002093840096BBD3
:107E4000B09BFECF1D9AA8958150A9F7CC24DD24C4
:107E500088248394B5E0AB2EA1E19A2EF3E0BF2EE7
:107E6000A2D0813461F49FD0082FAFD0023811F036
:107E7000013811F484E001C083E08DD089C08234E0
:107E800011F484E103C0853419F485E0A6D080C0E4
:107E9000853579F488D0E82EFF2485D0082F10E0AE
:107EA000102F00270E291F29000F111F8ED06801E7
:107EB0006FC0863521F484E090D080E0DECF843638
:107EC00009F040C070D06FD0082F6DD080E0C81688
:107ED00080E7D80618F4F601B7BEE895C0E0D1E017
:107EE00062D089930C17E1F7F0E0CF16F0E7DF06D8
:107EF00018F0F601B7BEE89568D007B600FCFDCFD4
:107F0000A601A0E0B1E02C9130E011968C91119780
:107F100090E0982F8827822B932B1296FA010C0160
:107F200087BEE89511244E5F5F4FF1E0A038BF0790
:107F300051F7F601A7BEE89507B600FCFDCF97BE46
:107F4000E89526C08437B1F42ED02DD0F82E2BD052
:107F50003CD0F601EF2C8F010F5F1F4F84911BD097
:107F6000EA94F801C1F70894C11CD11CFA94CF0C13
:107F7000D11C0EC0853739F428D08EE10CD085E9AC
:107F80000AD08FE07ACF813511F488E018D01DD067
:107F900080E101D065CF982F8091C00085FFFCCF94
:107FA0009093C60008958091C00087FFFCCF809118
:107FB000C00084FD01C0A8958091C6000895E0E648
:107FC000F0E098E1908380830895EDDF803219F02E
:107FD00088E0F5DFFFCF84E1DECF1F93182FE3DFCA
:107FE0001150E9F7F2DF1F91089580E0E8DFEE27F6
:047FF000FF270994CA
:027FFE00040479
:00000001FF
